:100000000C949E000C94CD080C94A6080C94C60089
:100010000C94C6000C94C6000C94C6000C94C60048
:100020000C94C6000C94C6000C94C6000C94C60038
:100030000C94C6000C94C6000C94C6000C94C60028
:100040000C945C080C94C6000C942A080C940408C8
:100050000C94C6000C94C6000C94C6000C94C60008
:100060000C94F4080C94C60008000000BE922449C9
:10007000123EABAAAA2ABECDCCCC4C3E00000080DA
:10008000BEABAAAAAA3E00000000BF000000803F4D
:100090000000000000084178D3BB4387D1133D190D
:1000A0000E3CC3BD4282AD2B3E68EC8276BED98F3A
:1000B000E1A93E4C80EFFFBE01C4FF7F3F0000007E
:1000C000000007634236B79BD8A71A39685618AEA6
:1000D000BAAB558C1D3CB7CC5763BD6DEDFD753E7D
:1000E000F6177231BF000000803F000000002400BE
:1000F00027002A0000000000250028002B0004042F
:1001000004040404040402020202020203030303BF
:10011000030301020408102040800102040810209B
:100120000102040810200000000800020100000382
:10013000040700000000000000000F0A11241FBE89
:10014000CFEFD8E0DEBFCDBF11E0A0E0B1E0EAE63E
:10015000F7E202C005900D92AC38B107D9F723E061
:10016000ACE8B1E001C01D92A530B207E1F710E0A4
:10017000CEE9D0E004C02197FE010E948812CD395B
:10018000D107C9F70E94480A0C94B3130C940000DD
:100190008F929F92AF92BF92CF92DF92EF92FF9297
:1001A0000F931F93CF93DF93EC014A015B0168012A
:1001B0007901FC01E05CFF4F1082118212821382F0
:1001C000349680E090E0AAEFB4E480839183A28328
:1001D000B38380E090E0A8ECB2E488AB99ABAAAB23
:1001E000BBAB8E01085B1F4FF80180819181892B89
:1001F00039F1288139814A815B8160E070E0CB016F
:100200000E94950E688379838A839B832C813D812C
:100210004E815F8160E070E0CB010E94950E6C839F
:100220007D838E839F83288539854A855B8560E041
:1002300070E0CB010E94950E688779878A879B873B
:10024000F8011182108220E030E0A901C501B4015B
:100250000E94020F87FD29C020E030E0A901C701FC
:10026000B6010E94020F87FD20C08C869D86AE8657
:10027000BF86C88AD98AEA8AFB8A1C8A1D8A1E8A96
:100280001F8A88829982AA82BB822DEC3CEC4CECBE
:100290005DE3C701B6010E94B6106C837D838E8337
:1002A0009F83188619861A861B86188E198E1A8EB9
:1002B0001B8E1CA61DA61EA61FA6DF91CF911F9107
:1002C0000F91FF90EF90DF90CF90BF90AF909F90F5
:1002D0008F900895AF92BF92CF92DF92EF92FF92EC
:1002E0000F931F93CF93DF936C017B018B01040F5E
:1002F000151FEB015E01AE18BF08C017D10759F0FA
:100300006991D601ED91FC910190F081E02DC6013B
:100310000995892B79F7C501DF91CF911F910F9135
:10032000FF90EF90DF90CF90BF90AF900895FC01C9
:10033000538D448D252F30E0842F90E0821B930B4A
:10034000541710F0CF96089501970895FC01918DF0
:10035000828D981761F0A28DAE0FBF2FB11D5D96F3
:100360008C91928D9F5F9F73928F90E008958FEF95
:100370009FEF0895FC01918D828D981731F0828D49
:10038000E80FF11D858D90E008958FEF9FEF0895A0
:10039000FC01918D228D892F90E0805C9F4F821B04
:1003A00091098F739927089588E592E00E94C8010A
:1003B00021E0892B09F420E0822F089580E090E06D
:1003C000892B29F00E94D40181110C94000008951A
:1003D000FC01A48DA80FB92FB11DA35ABF4F2C91BA
:1003E000848D90E001968F739927848FA689B789B1
:1003F0002C93A089B1898C91837080648C93938DA8
:10040000848D981306C00288F389E02D80818F7D4A
:1004100080830895EF92FF920F931F93CF93DF9302
:10042000EC0181E0888F9B8D8C8D98131AC0E88930
:10043000F989808185FF15C09FB7F894EE89FF89FF
:100440006083E889F98980818370806480839FBF9D
:1004500081E090E0DF91CF911F910F91FF90EF909D
:100460000895F62E0B8D10E00F5F1F4F0F731127AD
:10047000E02E8C8D8E110CC00FB607FCFACFE889E8
:10048000F989808185FFF5CFCE010E94E801F1CF87
:10049000EB8DEC0FFD2FF11DE35AFF4FF0829FB75C
:1004A000F8940B8FEA89FB8980818062CFCFCF934C
:1004B000DF93EC01888D8823B9F0AA89BB89E8898C
:1004C000F9898C9185FD03C0808186FD0DC00FB632
:1004D00007FCF7CF8C9185FFF2CF808185FFEDCFB0
:1004E000CE010E94E801E9CFDF91CF91089590E01D
:1004F000FC01EA5DFE4F2491FC01EE5EFE4F34915B
:10050000FC01E250FF4FE491EE23C9F0222339F0C1
:10051000233001F1A8F4213019F1223029F1F0E063
:10052000EE0FFF1FEC50FF4FA591B4918FB7F894D9
:10053000EC91611126C030953E233C938FBF089506
:100540002730A9F02830C9F0243049F78091800085
:100550008F7D03C0809180008F7780938000DFCFF4
:1005600084B58F7784BDDBCF84B58F7DFBCF809141
:10057000B0008F778093B000D2CF8091B0008F7D94
:10058000F9CF3E2BDACFCF93DF9390E0FC01EE5E04
:10059000FE4F249182509F4FFC0184918823D1F01B
:1005A00090E0880F991FFC01E651FF4FA591B4918F
:1005B000FC01EC50FF4FC591D49161110EC09FB763
:1005C000F8948C91E22FE0958E238C932881E2237E
:1005D000E8839FBFDF91CF9108958FB7F894EC9196
:1005E000E22BEC938FBFF6CF1F93CF93DF93182F9F
:1005F000EB0161E00E94C302209739F460E0812F93
:10060000DF91CF911F910C947702CF3FD10511F468
:1006100061E0F5CFE12FF0E0EA5DFE4FE491E330D9
:1006200031F140F4E130B1F0E230E1F0C038D10511
:100630007CF7E4CFE73029F1E83059F1E430B1F745
:1006400080918000806280938000D0938B00C09363
:100650008A0004C084B5806884BDC7BDDF91CF9196
:100660001F91089584B5806284BDC8BDF7CF809185
:100670008000806880938000D0938900C0938800B8
:10068000EDCF8091B00080688093B000C093B3003C
:10069000E5CF8091B00080628093B000C093B40039
:1006A000DDCF8E50806480937C0080917A008064DE
:1006B00080937A0080917A0086FDFCCF809178004B
:1006C0009091790008953FB7F8948091D20190916C
:1006D000D301A091D401B091D50126B5A89B05C046
:1006E0002F3F19F00196A11DB11D3FBFBA2FA92FB1
:1006F000982F8827BC01CD01620F711D811D911DAE
:1007000042E0660F771F881F991F4A95D1F7089519
:1007100008951F93CF93DF93C1E0C0938D01882389
:1007200099F1D091B8001091BA008091BC008A7BF9
:100730008093BC0060E082E10E94770260E083E188
:100740000E94770210922E02C0932D02109208028E
:1007500061E082E10E94770261E083E10E9477021A
:100760008091B9008E7F8093B9008091B9008D7F10
:100770008093B90088E48093B80085E48093BC003E
:100780001093BA00D093B800DF91CF911F910895D4
:10079000CF92DF92EF92FF920F931F93CF93DF934D
:1007A000D091570281E0D13208F09CC0C09156022E
:1007B0000E9463036B017C0180912E0281116CC049
:1007C00082E080932E0281E080932D028FEF809350
:1007D0002C0210922B02D0932A02A6E3B2E0EAE0A8
:1007E000F2E080E0D8138DC01092090280910902D6
:1007F000CC0FC82BC093090280910802813009F008
:1008000084C0109208020E9463036B017C018091F6
:1008100009028093BB008091300290913102A09137
:100820003202B0913302892B8A2B8B2BA1F00E94CC
:100830006303009130021091310220913202309115
:1008400033026C197D098E099F09061717072807BF
:10085000390708F442C08091BC0083FDD8CF85ECF5
:100860008093BC000E9463036B017C0180912E0287
:10087000823009F44CC080912C028F3F09F469C08A
:1008800080912C02803209F466C080912C02803362
:1008900009F463C084E026C0809130029091310257
:1008A000A0913202B0913302892B8A2B8B2B09F451
:1008B00083CF0E9463030091300210913102209196
:1008C0003202309133026C197D098E099F09061797
:1008D00017072807390708F06FCF80912F020E9471
:1008E000890385E01092350210925702109234026B
:1008F000DF91CF911F910F91FF90EF90DF90CF90FC
:1009000008959D9191938F5F6DCF85EEA9CF8091D2
:10091000300290913102A0913202B0913302892BC2
:100920008A2B8B2B09F4A2CF0E9463030091300223
:100930001091310220913202309133026C197D09FD
:100940008E099F09061717072807390708F08ECF69
:10095000C4CF80E0C7CF82E0C5CF83E0C3CF209172
:10096000AE01260F3327331F21323105ECF42091DD
:100970002E02FC0190E080E0243069F082E00895CE
:10098000A091AE012191AC0142575E4FA40FB52F4B
:10099000B11D2C930196861798F38091AE01680FD4
:1009A0006093AE0180E0089581E0089508958FEF8F
:1009B0009FEF08958FEF9FEF089580918C0190E055
:1009C0009195819591090895CF92DF92EF92FF92D0
:1009D0000F931F93CF93DF937C01CB018A0120916A
:1009E0003402222389F0EB016B01C40ED51ECC1515
:1009F000DD0569F06991D701ED91FC910190F081DD
:100A0000E02DC7010995F3CF642F0E94AF04C80100
:100A1000DF91CF911F910F91FF90EF90DF90CF90DA
:100A20000895CF93DF931F92CDB7DEB769832091EE
:100A300034022223F9F020915702203258F021E0AD
:100A400030E0FC013383228390E080E00F90DF915F
:100A5000CF91089580913502E82FF0E0EA5CFD4FD8
:100A6000998190838F5F809335028093570281E054
:100A700090E0ECCF61E0CE0101960E94AF04F7CF89
:100A8000682F85EF92E00C94110590E080E00895C6
:100A90002FB7F8948091D6019091D701A091D801F9
:100AA000B091D9012FBF409104025091050260918D
:100AB000060270910702452B462B472B41F4809389
:100AC000040290930502A0930602B093070280935C
:100AD000000290930102A0930202B093030280915E
:100AE000FC019091FD01A091FE01B091FF010196E2
:100AF000A11DB11D8093FC019093FD01A093FE0107
:100B0000B093FF0108954F925F926F927F928F9200
:100B10009F92AF92BF92CF92DF92EF92FF92CF93CC
:100B2000DF93CDB7DEB72A970FB6F894DEBF0FBEBE
:100B3000CDBF9A87898749835A836B837C839A01C7
:100B4000AB01DC0190966D917D918D919C91939775
:100B50000E94950E4B015C01E985FA8584A295A25D
:100B6000A6A2B7A224813581468157810E94B61082
:100B7000A985BA85D8962D913D914D915C91DB97D1
:100B80000E94960E2B013C01E985FA8540AE51AEDC
:100B900062AE73AEEC5BFF4FC080D180E280F38029
:100BA000A70196010E94611018160CF084C0A98557
:100BB000BA85D896CD92DD92ED92FC92DB97A9850D
:100BC000BA8558962D913D914D915C915B976981C5
:100BD0007A818B819C810E94950E9B01AC01E985F5
:100BE000FA85248F358F468F578F80859185A28512
:100BF000B385BC01CD0190580E94B6102B013C0179
:100C0000A985BA85DC964D925D926D927C92DF97B4
:100C10002D913D914D915C91C501B4010E94B6109A
:100C2000E985FA8520AD31AD42AD53AD0E94960EF7
:100C3000A30192010E94960E4B015C01A985BA8521
:100C400098968D929D92AD92BC929B97AC019B0120
:100C5000C701B6010E94020FE985FA8587FF4AC0E5
:100C6000C0A6D1A6E2A6F3A689819A81AB81BC81F8
:100C7000E985FA85808F918FA28FB38F80A591A58A
:100C8000A2A5B3A584A795A7A6A7B7A72A960FB62E
:100C9000F894DEBF0FBECDBFDF91CF91FF90EF90F4
:100CA000DF90CF90BF90AF909F908F907F906F908C
:100CB0005F904F900895E985FA85E05CFF4F808151
:100CC0009181A281B3818D839E83AF83B8879C017C
:100CD000AD01C301B2010E94020F87FF70CF8D8169
:100CE0009E81AF81B885E985FA8580AF91AFA2AFCB
:100CF000B3AF65CFE05CFF4F40805180628073806E
:100D0000A3019201C501B4010E94020F87FFACCF7D
:100D1000A985BA8598964D925D926D927C929B972B
:100D2000A3CFFC0101900020E9F73197AF01481BE8
:100D3000590BBC0188E592E00C946A018F929F9256
:100D4000AF92BF920F931F93CF93DF93CDB7DEB7D0
:100D5000A1970FB6F894DEBF0FBECDBF19A24230E7
:100D600008F44AE08E010F5D1F4F842E912CB12CA8
:100D7000A12CA50194010E945D12E62FB901CA01C0
:100D8000EA30F4F4E05DD801EE938D01232B242B9F
:100D9000252B79F790E080E0109719F0CD010E94A3
:100DA0009106A1960FB6F894DEBF0FBECDBFDF91BE
:100DB000CF911F910F91BF90AF909F908F9008950A
:100DC000E95CE1CFCF93DF930E949106EC018EE2C4
:100DD00091E00E9491068C0F9D1FDF91CF910895A5
:100DE0004F925F926F927F928F929F92AF92BF923B
:100DF000CF92DF92EF92FF920F931F93CF936B01ED
:100E00007C01742EAC019B010E947311882399F020
:100E100081E391E0CF911F910F91FF90EF90DF90D0
:100E2000CF90BF90AF909F908F907F906F905F908A
:100E30004F900C94910646015701E894B7F82FEFB4
:100E40003FEF4FE75FE7C501B4010E9473118111C5
:100E50000DC02FEF3FEF4FE75FE7C501B4010E94E0
:100E6000020F18161CF485E391E0D4CF2FEF3FEF6B
:100E70004FE75FE4C701B6010E94611018161CF429
:100E800089E391E0C7CF2FEF3FEF4FE75FECC7015A
:100E9000B6010E94020F87FDF3CF20E030E0A901E8
:100EA000C701B6010E94020F10E000E087FF0AC0F0
:100EB0006DE288E592E00E940A028C01F7FAF09454
:100EC000F7F8F094C0E060E070E080E09FE37C160B
:100ED00041F020E030E040E251E40E94070FCF5F94
:100EE000F6CFA70196010E94960E2B013C010E94AD
:100EF000800F4B015C014AE00E949E067C01E00EDF
:100F0000F11ECC23C1F1C501B4010E94AF0F9B01BA
:100F1000AC01C301B2010E94950E4B015C016EE26F
:100F200088E592E00E940A02E80EF91EC15018F10D
:100F300020E030E040E251E4C501B4010E94B61067
:100F40002B013C010E94800F4B01B12CA12C4AE0E7
:100F5000C501B4010E949E06E80EF91EC501B40148
:100F60000E94AF0F9B01AC01C301B2010E94950E1C
:100F70004B015C01DBCFC701CF911F910F91FF9017
:100F8000EF90DF90CF90BF90AF909F908F907F9029
:100F90006F905F904F90089585ED8093BC00809195
:100FA000300290913102A0913202B0913302079643
:100FB000A11DB11D23E0B695A795979587952A9514
:100FC000D1F72091BC0024FD03C010922E02089599
:100FD000409130025091310260913202709133029F
:100FE000452B462B472B69F30097A105B10541F02E
:100FF00025E32A95F1F700000197A109B109E1CF96
:1010000080912F020C9489031F920F920FB60F92BA
:1010100011242F933F934F935F936F937F938F93FD
:101020009F93AF93BF93EF93FF9388E592E00E9465
:10103000E801FF91EF91BF91AF919F918F917F91C7
:101040006F915F914F913F912F910F900FBE0F9035
:101050001F9018951F920F920FB60F9211242F9385
:101060008F939F93EF93FF93E0916802F091690251
:101070008081E0916E02F0916F0282FD1BC0908131
:10108000809171028F5F8F7320917202821741F0FD
:10109000E0917102F0E0E85AFD4F958F8093710264
:1010A000FF91EF919F918F912F910F900FBE0F9015
:1010B0001F9018958081F4CF1F920F920FB60F9258
:1010C00011242F933F938F939F93AF93BF9380915E
:1010D000D6019091D701A091D801B091D90130915A
:1010E000D10123E0230F2D3758F50196A11DB11D25
:1010F0002093D1018093D6019093D701A093D8017A
:10110000B093D9018091D2019091D301A091D401E3
:10111000B091D5010196A11DB11D8093D20190938C
:10112000D301A093D401B093D501BF91AF919F910A
:101130008F913F912F910F900FBE0F901F90189598
:1011400026E8230F0296A11DB11DD2CF1F920F9248
:101150000FB60F9211242F933F934F935F936F938A
:101160007F938F939F93AF93BF93EF93FF93E09100
:101170000201F09103010995FF91EF91BF91AF91A9
:101180009F918F917F916F915F914F913F912F919F
:101190000F900FBE0F901F9018951F920F920FB6D1
:1011A0000F9211242F933F934F935F936F937F93ED
:1011B0008F939F93AF93BF93EF93FF93E0910001C1
:1011C000F09101010995FF91EF91BF91AF919F912E
:1011D0008F917F916F915F914F913F912F910F90E0
:1011E0000FBE0F901F9018951F920F920FB60F927F
:1011F00011242F933F934F935F936F937F938F931C
:101200009F93AF93BF93EF93FF938091B900887F33
:10121000803609F44AC0F0F5883209F4A5C018F503
:10122000803109F499C0B8F4882309F4F5C08830F6
:1012300009F492C0FF91EF91BF91AF919F918F916F
:101240007F916F915F914F913F912F910F900FBEC2
:101250000F901F901895883109F486C0803251F79D
:1012600080932C0214C0803409F49BC040F4803376
:10127000B9F38833F9F680932C0285ECAEC0803543
:1012800009F483C0883509F494C0883499F60E9423
:10129000CC07D0CF883909F48AC038F5883729F0CF
:1012A00050F4883611F0803729F683E080932E02BF
:1012B0001092D00155C0883809F479C0803919F0EE
:1012C000803809F0B7CF8091D001803208F06FC02C
:1012D000E091D00181E08E0F8093D0018091BB001E
:1012E000F0E0E055FE4F80833BC0803B39F0D0F406
:1012F000803A09F477C0883A09F09CCF84E0809363
:101300002E021092AF011092AE01F0E0E0E00995DC
:101310008091AE0181110FC081E08093AE011092E7
:101320008E0109C0803C09F4A8CF883C09F4A5CF00
:10133000883B09F07FCFE091AF0181E08E0F809371
:10134000AF01F0E0E257FE4F80818093BB009091A7
:10135000AF018091AE0129C0809109028093BB004A
:1013600085EC8093BC0066CF90912B0280912A027D
:10137000981758F5E0912B0281E08E0F80932B0295
:10138000F0E0E65FFD4F8081E9CFE0912B0281E044
:101390008E0F80932B028091BB00F0E0E65FFD4F43
:1013A000808390912B0280912A029817C8F285E8D9
:1013B000D8CFE0912B0281E08E0F80932B02809199
:1013C000BB00F0E0E65FFD4F808380912D0281112C
:1013D0005ECF81E08093080284EA8093BC00109283
:1013E0002E0228CF85EC8093BC0010922E028091B3
:1013F000D001803230F4E091D001F0E0E055FE4FB2
:1014000010826091D00170E080EB91E0F0E0E0E0CC
:1014100009951092D0010ECF10922C0238CFE8E53A
:10142000F2E01382128288EE93E0A0E0B0E08483C1
:101430009583A683B7832EE031E03183208325ECAA
:1014400030E03587248724EC30E03787268720EC8E
:1014500030E0318B208B21EC30E0338B228B22EC7F
:1014600030E0358B248B26EC30E0378B268B118EC9
:10147000128E138E148EE5EFF2E0138212828483B3
:101480009583A683B78380E291E09183808308955A
:10149000CF93DF9300D000D000D0CDB7DEB77894E3
:1014A00084B5826084BD84B5816084BD85B5826069
:1014B00085BD85B5816085BD80916E00816080931A
:1014C0006E00109281008091810082608093810083
:1014D0008091810081608093810080918000816093
:1014E000809380008091B10084608093B1008091EE
:1014F000B00081608093B00080917A008460809316
:101500007A0080917A00826080937A0080917A00DC
:10151000816080937A0080917A00806880937A005D
:101520001092C100E0916802F091690282E080832C
:10153000E0916402F09165021082E0916602F09100
:1015400067028FEC808310927002E0916C02F09140
:101550006D0286E08083E0916A02F0916B028081E7
:1015600080618083E0916A02F0916B0280818860E3
:101570008083E0916A02F0916B02808180688083B1
:10158000E0916A02F0916B0280818F7D80838DE310
:1015900091E00E94E20660E082E00E94C30261E006
:1015A00085E00E94C30261E086E00E94C30260E021
:1015B0008EE00E94C30260E08FE00E94C30288E4D4
:1015C00095E0909301018093000180916900836010
:1015D00080936900E89A89E491E00E94E20621E0A4
:1015E0002093340210925602109235021092570244
:1015F00086E090E00E9440050E94C8038FE591E0DC
:101600000E94910640E160E070E0CB010E949E06DE
:101610008EE691E00E94910640E160E270E080E099
:1016200090E00E949E068EE291E00E94910631E0D9
:101630003093340280E48093560210923502109267
:10164000570260E085EF92E00E94110560E285EFAD
:1016500092E00E9411050E94C8038AE490E00E9473
:101660008E129A8389839093EF018093EE0100E0BC
:1016700010E020E231E440E050E068EC72E40E94C7
:10168000C80080E090E0ABE9B3E4E981FA8180A38F
:1016900091A3A2A3B3A3E05CFF4F10821182128238
:1016A000138229813A812C5B3F4FC12CD12C7FE7DB
:1016B000E72E73E4F72ED901CD92DD92ED92FC92E4
:1016C00013978AE490E00E948E129A838983909304
:1016D000ED018093EC010DEC1CEC2CE43DE3B90131
:1016E000A8010E94C80080E090E0AAE7B4E4E98184
:1016F000FA8180A391A3A2A3B3A3E05CFF4F108261
:1017000011821282138229813A812C5B3F4FD901C9
:10171000CD92DD92ED92FC9213978AE490E00E94C4
:101720008E129A8389839093EB018093EA0100E003
:1017300010E098014AE057ED63E27CE30E94C800A4
:1017400080E090E0A0EAB0E4E981FA8180A391A36F
:10175000A2A3B3A3E05CFF4F80E090E0A0E8BFEB62
:1017600080839183A283B38329813A812C5B3F4F8D
:1017700080E090E0A0E8BFE3F90180839183A28339
:10178000B3831092DA011092DB011092DC01109207
:10179000DD011092DE011092DF011092E001109243
:1017A000E101E0E02E2EE0E03E2E8FB7F89440906D
:1017B000D6015090D7016090D8017090D9018FBFA9
:1017C0008091040290910502A0910602B091070257
:1017D000A3019201281B390B4A0B5B0BDA01C901EB
:1017E000893E9340A105B10508F456C080900002DF
:1017F00090900102A0900202B09003028091040236
:1018000090910502A0910602B0910702881A990AE8
:10181000AA0ABB0A09F461C06091FC017091FD0144
:101820008091FE019091FF010E94AF0F20E030E611
:101830004AE657E40E94B6106B017C01C501B40171
:101840000E94AF0F9B01AC010E94960E9B01AC0160
:10185000C701B6010E94070F6093F8017093F90168
:101860008093FA019093FB01809100029091010214
:10187000A0910202B09103028093040290930502AA
:10188000A0930602B09307021092FC011092FD0192
:101890001092FE011092FF011A821982C12CD12CE4
:1018A000760149815A814436510501F18EE00E944A
:1018B0005103BC01990F880B990B0E94B10F9B013A
:1018C000AC01C701B6010E94960E6B017C018981B3
:1018D0009A8101969A838983E4CF1092F80110923D
:1018E000F9011092FA011092FB01D6CF23E333E302
:1018F00043E550E4C701B6010E94B61020E030E095
:1019000048EC57E40E94070F2AE037ED43E25CE31E
:101910000E94950E4B015C0120E030E44CE156E45E
:101920000E94B6106B017C01A501940163E373E38F
:1019300083E590E40E94950E9B01AC01C701B601BE
:101940000E94070F0E946E104B015C0120E030E006
:1019500040E450E40E9423116B017C012CEF3CE138
:1019600046E759E3C501B4010E94B61029E13FE7FB
:1019700043E95AE30E94960E4B015C0124E036EFE6
:1019800047EB53E3C701B6010E94B6109B01AC01BF
:10199000C501B4010E94960E9B01AC0160E070E0AD
:1019A00080E89FE30E94070F6B017C01C092F40165
:1019B000D092F501E092F601F092F7018FE00E94DB
:1019C0005103BC01990F880B990B0E94B10F20E0C5
:1019D00030EC4FE754E40E94070F23E333E343E581
:1019E00050E40E94B6102DEC3CEC4CE45EE30E9407
:1019F000950E20E030E040E651E40E94B61023E36B
:101A000033E343E350E40E94070F4B015C018092F3
:101A1000F0019092F101A092F201B092F301A09135
:101A2000EE01B091EF01BA83A983B701A601CD0100
:101A30000E9483050091EC011091ED014091F801A5
:101A40005091F9016091FA017091FB01C8010E9467
:101A50008305E091EA01F091EB01FE83ED83B5018E
:101A6000A401CF010E948305A981BA8198966D9146
:101A70007D918D919C919B970E94790F7093E901C4
:101A80006093E801F80160A571A582A593A50E9465
:101A9000790F7093E7016093E601ED81FE8180A5E7
:101AA00091A5A2A5B3A58093E2019093E301A09331
:101AB000E401B093E501A3019201550F220B322FEF
:101AC000A90129833A834B835C839201A301698135
:101AD000762F862F962FA090DA01B090DB01C09070
:101AE000DC01D090DD01E090DE01F090DF0100919B
:101AF000E0011091E1010E947F12283E3340410530
:101B00005105610571058105910509F00CF446C088
:101B100085E791E00E9491066091F4017091F501D2
:101B20008091F6019091F70142E00E94F0068CE767
:101B300091E00E9491068FE791E00E9491066091EA
:101B4000F8017091F9018091FA019091FB0142E056
:101B50000E94F00686E891E00E9491066091F001F3
:101B60007091F1018091F2019091F30142E00E94A5
:101B7000F00680E391E00E94E2064092DA01509282
:101B8000DB016092DC017092DD01B981B093DE016E
:101B9000B093DF01B093E001B093E1016091E60101
:101BA0007091E70185E00E94F4026091E801709174
:101BB000E90186E00E94F402C090E201D090E301C6
:101BC000E090E401F090E50120E030E0A901C701D8
:101BD000B6010E94611018160CF074C020E030EFBE
:101BE0004FE755E4C701B6010E94B6100E94790F75
:101BF0004B01A701960160E070E080E89FE30E943E
:101C0000950E20E030EF4FE755E40E94B6100E9499
:101C1000790F6B0131E03093340240E44093560277
:101C200010923502109257028AE090E00E9440051F
:101C3000C40199270E944005892C990C9908C40178
:101C40008F7099270E944005C60199270E94400580
:101C5000CD2CDD0CDD08C6018F7099270E94400550
:101C60000E94C8030E9463036B017C0184E6882EF6
:101C7000912CA12CB12C0E9463036C197D098E0953
:101C80009F09683E734081059105A8F391E0891A88
:101C90009108A108B108A8EECA0EA3E0DA1EE11C63
:101CA000F11C81149104A104B10429F72114310419
:101CB00009F47BCD0E94D401882309F476CD0E94DB
:101CC000000073CD20E030E0A901C701B6010E94F9
:101CD000020F87FFC7CFC701B601905820E030EF51
:101CE0004FE755E40E94B6100E94790F4B0120E0A7
:101CF00030E040E85FE3C701B6010E94960E20E0A5
:101D000030EF4FE755E40E94B6100E94790F6B0147
:101D100051E05093340280E48093560210923502D1
:101D20001092570286E090E081CF5058BB27AA2737
:101D30000E94AD0E0C9427100E94191038F00E94DA
:101D4000201020F039F49F3F19F426F40C9416105B
:101D50000EF4E095E7FB0C941010E92F0E94381068
:101D600058F3BA17620773078407950720F079F4D0
:101D7000A6F50C945A100EF4E0950B2EBA2FA02D58
:101D80000B01B90190010C01CA01A0011124FF2728
:101D9000591B99F0593F50F4503E68F11A16F04023
:101DA000A22F232F342F4427585FF3CF4695379522
:101DB0002795A795F0405395C9F77EF41F16BA0BE7
:101DC000620B730B840BBAF09150A1F0FF0FBB1F95
:101DD000661F771F881FC2F70EC0BA0F621F731FDE
:101DE000841F48F4879577956795B795F7959E3F3B
:101DF00008F0B0CF9395880F08F09927EE0F9795CC
:101E0000879508950E94EC0F08F481E008950E94E0
:101E10001B0F0C9427100E94201058F00E941910DC
:101E200040F029F45F3F29F00C94101051110C94EC
:101E30005B100C9416100E94381068F39923B1F3CC
:101E4000552391F3951B550BBB27AA2762177307E0
:101E5000840738F09F5F5F4F220F331F441FAA1F74
:101E6000A9F335D00E2E3AF0E0E832D09150504030
:101E7000E695001CCAF72BD0FE2F29D0660F771FDE
:101E8000881FBB1F261737074807AB07B0E809F0C4
:101E9000BB0B802DBF01FF2793585F4F3AF09E3F49
:101EA000510578F00C9410100C945B105F3FE4F334
:101EB000983ED4F3869577956795B795F7959F5F8C
:101EC000C9F7880F911D9695879597F90895E1E0D8
:101ED000660F771F881FBB1F621773078407BA0737
:101EE00020F0621B730B840BBA0BEE1F88F7E09592
:101EF00008950E94800F6894B1110C945B100895AE
:101F00000E94401088F09F5798F0B92F9927B75139
:101F1000B0F0E1F0660F771F881F991F1AF0BA958D
:101F2000C9F714C0B13091F00E945A10B1E0089581
:101F30000C945A10672F782F8827B85F39F0B93F73
:101F4000CCF3869577956795B395D9F73EF4909540
:101F50008095709561957F4F8F4F9F4F0895E894BE
:101F600009C097FB3EF490958095709561957F4FE1
:101F70008F4F9F4F9923A9F0F92F96E9BB2793958F
:101F8000F695879577956795B795F111F8CFFAF49F
:101F9000BB0F11F460FF1BC06F5F7F4F8F4F9F4FD0
:101FA00016C0882311F096E911C0772321F09EE82E
:101FB000872F762F05C0662371F096E8862F70E094
:101FC00060E02AF09A95660F771F881FDAF7880F6E
:101FD0009695879597F90895990F0008550FAA0BC4
:101FE000E0E8FEEF16161706E807F907C0F012162C
:101FF0001306E407F50798F0621B730B840B950B2F
:1020000039F40A2661F0232B242B252B21F4089583
:102010000A2609F4A140A6958FEF811D811D089520
:1020200097F99F6780E870E060E008959FEF80EC8B
:10203000089500240A94161617061806090608952E
:1020400000240A9412161306140605060895092E94
:102050000394000C11F4882352F0BB0F40F4BF2B03
:1020600011F460FF04C06F5F7F4F8F4F9F4F089543
:1020700057FD9058440F551F59F05F3F71F0479539
:10208000880F97FB991F61F09F3F79F0879508951E
:10209000121613061406551FF2CF4695F1DF08C03D
:1020A000161617061806991FF1CF8695710561055A
:1020B00008940895E894BB2766277727CB0197F902
:1020C00008950E94EC0F08F48FEF089516F00C9419
:1020D000B2110C94161068940C9410100E944010C9
:1020E000A8F39923C1F3AEF3DF93CF931F930F931C
:1020F000FF92C92FDD2788232AF02197660F771FCB
:10210000881FDAF720E030E040E85FEB9FE3883992
:1021100020F0803E38F021968F770E94960EE8E6F8
:10212000F0E004C00E94960EE5E9F0E00E94C011C4
:102130008B01BE01EC01FB2E6F5771097595771F5E
:10214000880B990B0E94B10F28E132E741E35FE36E
:102150000E94C910AF2D9801AE01FF900F911F9101
:10216000CF91DF910E94AD0E0C9427100E94C910F0
:102170000C9427100E94191038F00E94201020F0B3
:10218000952311F00C9410100C94161011240C943B
:102190005B100E94381070F3959FC1F3950F50E0CB
:1021A000551F629FF001729FBB27F00DB11D639F09
:1021B000AA27F00DB11DAA1F649F6627B00DA11DAF
:1021C000661F829F2227B00DA11D621F739FB00D55
:1021D000A11D621F839FA00D611D221F749F3327C5
:1021E000A00D611D231F849F600D211D822F762F5E
:1021F0006A2F11249F5750409AF0F1F088234AF03B
:10220000EE0FFF1FBB1F661F771F881F91505040A6
:10221000A9F79E3F510580F00C9410100C945B10B0
:102220005F3FE4F3983ED4F3869577956795B7952D
:10223000F795E7959F5FC1F7FE2B880F911D969547
:10224000879597F90895FA01EE0FFF1F3096210543
:102250003105A1F16115710561F48038BFE39B0779
:1022600049F168949038810561F08038BFEF9B0791
:1022700041F099234AF5FF3FE1053105210519F1A8
:10228000E8940894E795D901AA2329F4AB2FBE2F2F
:10229000F85FD0F310C0FF5F70F4A695E0F7F73950
:1022A00050F019F0FF3A38F49F779F930DD00F90BC
:1022B00007FC9058089546F00C94161060E070E00A
:1022C00080E89FE308954FE79F775F934F933F9395
:1022D0002F930E946E102F913F914F915F910E941A
:1022E000B6100C9480110E94EC0F880B990B089586
:1022F00029F416F00C9410100C945A100C9416102B
:102300000E944010A8F39638A0F707F80F92E894BF
:102310002BE33AEA48EB5FE70E94CC100F920F9252
:102320000F924DB75EB70F920E942912E2ECF0E0D7
:102330000E94C0114F915F91EF91FF91E595EE1FC3
:10234000FF1F49F0FE57E0684427EE0F441FFA953F
:10235000E1F74195550B0E94F3110F9007FE0C9485
:10236000E71108959F3F31F0915020F487957795BC
:102370006795B795880F911D9695879597F908955C
:10238000DF93CF931F930F93FF92EF92DF927B0126
:102390008C01689406C0DA2EEF010E94C910FE017C
:1023A000E894A5912591359145915591A6F3EF01BA
:1023B0000E94AD0EFE019701A801DA9469F7DF9043
:1023C000EF90FF900F911F91CF91DF9108959B01A6
:1023D000AC0160E070E080E89FE30C94070F0C9480
:1023E00010100C94B2110E944010D8F39923C9F335
:1023F000940F511DA3F39150504094F059F088234D
:1024000032F0660F771F881F91505040C1F79E3FF2
:1024100051052CF7880F911D9695879597F908958A
:102420005F3FACF0983E9CF0BB278695779567950B
:10243000B79508F4B1609395C1F7BB0F58F711F445
:1024400060FFE8CF6F5F7F4F8F4F9F4FE3CF0C94BC
:102450005B10FA01DC01AA0FBB1F9B01AC01BF5747
:1024600028F4222733274427507820C0B75190F40E
:10247000AB2F0024469537952795011CA395D2F3E1
:10248000002071F0220F331F441FB395DAF30ED0F2
:102490000C94950E61307105A0E88A07B94630F4B6
:1024A0009B01AC016627772788279078309621F02A
:1024B00020833183428353830895A1E21A2EAA1BFD
:1024C000BB1BFD010DC0AA1FBB1FEE1FFF1FA217E4
:1024D000B307E407F50720F0A21BB30BE40BF50BE1
:1024E000661F771F881F991F1A9469F7609570956A
:1024F000809590959B01AC01BD01CF0108952A19EB
:102500003B094C095D096E097F09800B910B089509
:10251000EE0FFF1F0590F491E02D09940F931F9388
:10252000CF93DF938230910510F482E090E0E09148
:102530000303F091040330E020E0B0E0A0E0309726
:1025400099F42115310509F44AC0281B390B2430B0
:102550003105D8F58A819B816115710589F1FB01EF
:1025600093838283FE0111C04081518102811381D6
:1025700048175907E0F04817590799F4109761F088
:1025800012960C93129713961C933296CF01DF91FB
:10259000CF911F910F9108950093030310930403AB
:1025A000F4CF2115310551F04217530738F0A90136
:1025B000DB019A01BD01DF01F801C1CFEF01F9CFC5
:1025C0009093040380930303CDCFFE01E20FF31F2A
:1025D000819391932250310939832883D7CF209159
:1025E000010330910203232B41F420910601309125
:1025F00007013093020320930103209104013091DD
:1026000005012115310541F42DB73EB74091080170
:1026100050910901241B350BE0910103F091020355
:10262000E217F307A0F42E1B3F0B2817390778F0A9
:10263000AC014E5F5F4F2417350748F04E0F5F1F08
:102640005093020340930103819391939FCFF0E055
:10265000E0E09CCFCF93DF930097E9F0FC01329745
:1026600013821282A0910303B0910403ED0130E0C4
:1026700020E01097A1F420813181820F931F2091D7
:102680000103309102032817390709F061C0F09364
:102690000203E0930103DF91CF910895EA01CE1781
:1026A000DF07E8F54A815B819E0141155105B1F7CD
:1026B000E901FB83EA8349915991C40FD51FEC17B7
:1026C000FD0761F4808191810296840F951FE901D5
:1026D00099838883828193819B838A83F0E0E0E001
:1026E00012968D919C9113970097B9F52D913C917D
:1026F0001197CD010296820F931F20910103309113
:1027000002032817390739F6309751F51092040360
:1027100010920303B0930203A0930103BCCFD383B1
:10272000C28340815181840F951FC817D90761F476
:102730004E5F5F4F88819981480F591F51834083B5
:102740008A819B81938382832115310509F0B0CF63
:10275000F0930403E09303039ECFFD01DC01C0CF9F
:0A27600013821282D7CFF894FFCF46
:10276A0088038803000005038000000000000A02B5
:10277A006A0197015702C801A601BA0100000000C8
:10278A001105E4044505D604DD04DA04D7040D0A6C
:10279A00006E616E00696E66006F76660048656C51
:1027AA006C6F20576F726C6400526573657474693C
:1027BA006E672074686520504341393638350057B2
:1027CA007269746520383A2061646472200020645A
:1027DA00617461200054656D703A2000204B00201E
:0C27EA0052504D3A20002070483A200068
:00000001FF
